S01100006275696C642F6D6265642E7331390C
S11300000080001025020000550200005702000085
S1130010590200005B0200005D02000000000000C5
S11300200000000000000000000000005F0200006B
S1130030610200000000000063020000650200008D
S11300406702000067020000670200006702000008
S113005067020000670200006702000067020000F8
S113006067020000670200006702000067020000E8
S113007067020000670200006702000067020000D8
S113008067020000670200006702000067020000C8
S113009067020000670200006702000067020000B8
S11300A067020000670200006702000067020000A8
S11300B06702000067020000670200006702000098
S11300C067020000670200006702000010B5054CDB
S11300D0237833B9044B13B10448AFF300800123F0
S11300E0237010BD4001001000000000B42900007E
S11300F0084B10B51BB108480849AFF30080084805
S1130100036803B910BD074B002BFBD0BDE81040BA
S1130110184700BF00000000B4290000440100108B
S11301204001001000000000154B002B08BF134BCA
S11301309D46A3F5803A00218B460F461348144A86
S1130140121A01F086FB0F4B002B00D098470E4B80
S1130150002B00D098470020002104000D000D481A
S1130160002802D00C48AFF3008001F033FB2000DC
S1130170290000F013F801F03FFA00BF0000080066
S1130180008000100000000000000000400100108A
S11301907C030010000000000000000008B5074CBC
S11301A00748E36862681A6000F05CFF23696268CC
S11301B003481A6000F056FFF1E700BF5C0100102D
S11301C0CDCC4C3E10B5064C00212046182201F03F
S11301D040FB2046BDE81040024900F091BE00BF3C
S11301E05C01001032C009200C4A30B49368946852
S11301F01A46B4F1805F0CD2094A03F1C40553F8DE
S1130200044BAB4242F8044FF9D1044B4FF08052F7
S11302109A60103042F8201030BC704700ED00E0C6
S1130220FCFFFF0F0649074A074B9A42BEBF51F82D
S1130230040B42F8040BF8E70448804704480047DD
S1130240C0290000C800001040010010E1030000B4
S113025029010000FEE7FEE7FEE7FEE7FEE7FEE712
S1130260FEE7FEE7FEE7FEE702480349034A00F023
S11302702FBD00BF7003001002C0092003C0092075
S1130280022808B50BDD084BC21E53F822000021DA
S113029043F8221028B103685B68984708BD002022
S11302A008BD4FF0FF3008BD74010010022870B57E
S11302B00C4616460FDC0E4B1B680BB9FFF7D4FF38
S11302C0A51936B114F8011B0A4800F051FCAC42E0
S11302D0F8D1304670BD084B033853F8200018B1EC
S11302E003681B68984770BD4FF0FF3070BD00BFB6
S11302F0740200107003001074010010022810B57D
S11303000C4609DC0D4B1B688BB10D4800F0DAFB81
S113031001232070184610BD0A4B033853F82000FF
S113032040B103689B6898470346184610BDFFF721
S11303309BFFEAE74FF0FF33ECE700BF74020010C5
S11303407003001074010010022808B508DD074B83
S1130350033853F8200028B10368DB68984708BDC8
S1130360012008BD4FF0FF3008BD00BF740100102C
S1130370022808B508DD074B033853F8200028B1DC
S113038003681B69984708BD002008BD4FF0FF3083
S113039008BD00BF74010010022808B504D84FF44A
S11303A000534B60002008BD01F020F909230360CD
S11303B04FF0FF3008BD00BF074A13681844EFF33D
S11303C00881884202D2106018467047034B0C2201
S11303D01A604FF0FF307047C80000107803001017
S11303E02B4A202370B4C2F8A031D2F8A031980669
S11303F045D4274B022100250124AA2055220B268F
S1130400C3F80411C3F8A8511946C3F8AC51C3F892
S11304100C41C3F88460C3F88C00C3F88C20C3F883
S11304208040C3F88C00C3F88C20D1F88830184A77
S11304305B01FAD50321AA205523C2F88010C2F823
S11304408C001146C2F88C30D1F88830104A13F071
S1130450407FF9D00F4900230520C2F80801C2F8F3
S1130460C410C2F8C831136870BC23F4704323F07D
S11304703A0343F4405343F03A0313607047D2F80D
S1130480A0315906B5D4D2F8A0315906F7D5B0E752
S113049000C00F40DE87280400B599B072B63B490E
S11304A0684600F02DFD06A8394900F029FD0CA886
S11304B0384900F025FD12A8374900F021FD32E04B
S11304C00699039B019A01311A6059D00C990A9B31
S11304D0079A01311A604DD01299109B0D9A01317F
S11304E01A6041D0159B139A96201A6000F0C6FD3D
S11304F0009B013332D00699049B019A01311A60A2
S113050026D00C99099B079A01311A601AD01299C6
S11305100F9B0D9A01311A600ED0169B139A9620E8
S11305201A6000F0ABFD009B0133C9D11B481C4984
S1130530242200F0ABFCC3E718481949242200F038
S1130540A5FCEAE715481649242200F09FFCDEE7E3
S113055012481349242200F099FCD2E70F481049AD
S1130560242200F093FCC6E70C480D49242200F035
S11305708DFCB7E709480A49242200F087FCABE761
S113058006480749242200F081FC9FE732C0092075
S113059034C0092035C0092037C009203C2400009C
S11305A05424000008B5154A9368C3F34203012B91
S11305B01ED0022B19D1124B596F01310AD0D3F836
S11305C08010986F086093F8A61019B9516821F04B
S11305D001015160186F0A4B48B193F8A6302BB152
S11305E00021084A1368984708BD08BD08BD08BD26
S11305F0034A106F0028F9D01946F2E70080094039
S11306007C0200107802001070B50368294CA342E4
S113061049D041DD284CA3422AD004F58044A342AA
S113062044D1264C08263ABB01290BD04568244AFC
S1130630C5EBC50502EBC50494F8355094F8362093
S1130640EA4214D1012202FA01F5D1F1010138BFC5
S1130650002102FA01F15C6824EA05045C60036885
S11306605B68194203D1B240164BC3F8802070BDB9
S1130670154C0726002AD7D0012505FA01F176B2D8
S1130680304605FA06F65A680A435A602146FFF7CF
S1130690ABFD0C4B1E6070BDA4F58044A34205D194
S11306A00A4C0526BFE70A4C0626BCE7002426466A
S11306B0B9E700BF0000014000800940390700008D
S11306C07C02001000E100E0A5050000D506000052
S11306D0A507000008B5154A9368C3F34203012B2C
S11306E01DD0022B18D1124B5968013109D0196958
S11306F09868086093F8361019B9516821F001011F
S1130700516018680A4B48B193F836302BB1002178
S1130710084A1368984708BD08BD08BD08BD044AC7
S113072010680028F9D01946F2E700BF00C0004065
S11307307C0200107802001008B5174A9368C3F3CE
S11307404203012B21D0022B1CD1144BD3F8AC1043
S113075001310BD0D3F8B810D3F8B000086093F887
S1130760DE1019B9516821F001015160D3F8A800D5
S11307700A4B48B193F8DE302BB10021084A1368C4
S1130780984708BD08BD08BD08BD044AD2F8A800B2
S11307900028F8D01946F1E700C009407C02001097
S11307A07802001008B5154A9368C3F34203012B7D
S11307B01DD0022B18D1124BD96B013109D0996C81
S11307C0186C086093F86E1019B9516821F0010192
S11307D05160986B0A4B48B193F86E302BB10021ED
S11307E0084A1368984708BD08BD08BD08BD044AF7
S11307F0906B0028F9D01946F2E700BF00000140D1
S11308007C020010780200102DE9F04F0368884A3A
S11308108DB0934209908B4600F3F080854A934251
S113082000F0F78040F3D780834A934200F09F8022
S113083002F5804293420CD1804AD2F8AC1121F4E3
S11308404021C2F8AC11D2F8AC1141F48021C2F8B5
S1130850AC117B494FEA0B1209680891089CB1FB63
S1130860F2F102FB114289B20491002A00F0B18036
S11308706100A2000123029400240B910A920193C7
S11308800F4603920693CDF81CB05E460594DDF83E
S11308901CA001994FF00008D146CDB2DA46C346F8
S11308A0002F79DB0399DDF804E0B1FBF9F4640966
S11308B00134C4F34F04DE44002C66D10124B8F1A2
S11308C0000F67D104FB0EF0029AC000B2FBF0F0F7
S11308D00130CAEB500000F085FEB04206DA504504
S11308E064D00646CDF81480049406950BF1010BF0
S11308F05FFA8BF84545D144D2D8019CD3460F2CDE
S11309004FF000035DD0029A0899019C0A440B99A8
S1130910013402920194039A0F440A9C07992244D9
S1130920594403920791002BB1D0069B059A099C68
S113093042EA03102368C0B2197B049C41F0800191
S1130940C4F30722099C1973236804991A71236854
S11309505FFA81FB83F800B0236883F828002368DA
S11309601A7B02F07F021A730DB0BDE8F08F334A90
S1130970D2F8AC1121F44031C2F8AC11D2F8AC1168
S113098041F48031C2F8AC1163E7B8F1000F99D09B
S1130990012C97D8022495E7B7FBF9F42409DDF874
S11309A004E00134C4F34F04DE4485E70494019C5D
S11309B0D3460F2C0695CDF8148056464FF001030C
S11309C0A1D10599069A099C41EA0210C0B2236894
S11309D0B2E71020B0E7A2F5804293427FF439AF2A
S11309E0164AD2F8A81121F0C001C2F8A811D2F811
S11309F0A81141F04001C2F8A8112AE79B2211482E
S1130A00114900F043FA099C0A4A236893427FF48F
S1130A1009AF0A4AD2F8A81121F44071C2F8A8110A
S1130A20D2F8A81141F48071C2F8A81111E700BFEF
S1130A3000C00940000001400080094000C00F4090
S1130A40CC0000105C25000078250000F8B55D1E80
S1130A50012D07460C46164604D915481549FB22B4
S1130A6000F014FA053C032C1CD8042E14D8013EC3
S1130A70F6B2032E0DD8104B082253F826301B0172
S1130A80DBB244EA8504144323433A68DBB21373AC
S1130A90F8BD00231A46F4E708480649FE2200F090
S1130AA0F5F9E4E706480349FC2200F0EFF9DCE736
S1130AB0E025000078250000E02400002C2600003A
S1130AC00826000000B50268137DDB07FCD54368E7
S1130AD00949C3EBC30301EBC3035968107801311F
S1130AE0C0B207D0596904335B680B60536843F0A4
S1130AF0010353605DF804FB7C02001038B54368C1
S1130B00184AC3EBC303DB00D1180446C86901309B
S1130B1011D018331A445368151D013316D06A696D
S1130B206B6812681A4204D12368187DC0F38010E0
S1130B3038BD002038BD23681B7D9B060CD491F87A
S1130B4034000F288CBF0020012038BD0648074917
S1130B502C2200F09BF9E2E7002381F834300120D5
S1130B6038BD00BF7C0200103C240000B026000009
S1130B7038B504460D462046FFF7C0FF0028FAD0DA
S1130B802368EDB21D706268054BC2EBC20203EB31
S1130B90C20393F83420013283F8342038BD00BFF7
S1130BA07C0200102DE9F04F0446454D006883B0E7
S1130BB0A8420E469046994643D0656800230193A7
S1130BC02A46DFF808A1EF00C2EBC202781B4FF0FF
S1130BD0000E0AEBC0000AEBC20C4FF0FF33C361F6
S1130BE043607146724620468CF835E0FFF70CFDF1
S1130BF016B903B0BDE8F08F3249404600F0FEF963
S1130C0031498346484600F0F9F9B21E012A38D921
S1130C10012EEED1B8F1FF3FEBD02949226807201D
S1130C208B45107215D1019B9BB11B7C019A254900
S1130C3043F040034046137403B0BDE8F04F00F0A6
S1130C40ABB9037C656803F03F03037462680190E9
S1130C50B7E77D1B0AEBC50041460430002200F0D3
S1130C6071F962680125C2EBC2020AEBC203204695
S1130C702A46002183F8355003B0BDE8F04FFFF752
S1130C80C3BCB9F1FF3F09D00D4A90420CD0781B88
S1130C900AEBC00049461C3000F020F9032EA8D10D
S1130CA0B8F1FF3FB9D1A4E7019B002BEFD01A7C28
S1130CB0484642F080021A74034900F06DF9EDE7EA
S1130CC000000140BC240000982700007C020010B2
S1130CD02DE9F0470F46054608466149164600F0DF
S1130CE09BF960490446304600F096F901462046D7
S1130CF000F072F9411C044600F0AB805A4B2860A6
S1130D00984200F0838053D9584B984276D003F52B
S1130D108043984206D1564BD3F8C42042F0007267
S1130D20C3F8C4204FF0010984F808902B684FF0F1
S1130D300008C3F8048028464FF41651FFF764FDF9
S1130D4042464B4628460821FFF780FE3846444970
S1130D5000F022F93046434900F01EF97A1C03D012
S1130D603846414600F00EFA731C03D03046002189
S1130D7000F008FA3C4B9C4250D025D93B4B9C4296
S1130D8064D003F580439C424BD103236B60394903
S1130D90C3EBC3034FF0FF34284601EBC3052246DF
S1130DA023466C60EC610021BDE8F047FFF7FABE12
S1130DB0A3F580439842B5D12D4BD3F8C42042F01B
S1130DC00802C3F8C420ADE7A3F580439C4228D1B0
S1130DD0284E4FF0FF3400216960224623462846FE
S1130DE07460F461FFF7DEFE234B012429461C6086
S1130DF022480822BDE8F04700F020BD1C4BD3F880
S1130E00C42042F08072C3F8C4208BE7184BD3F897
S1130E10C42042F01002C3F8C42083E701236B60AE
S1130E20B5E76B681349C3EBC3034FF0FF3601EB1F
S1130E30C30732463346284600217E60FE61FFF731
S1130E40B1FE0F4B9C42CFD0BDE8F08702236B600C
S1130E509DE70C480C495C2200F018F82C6061E70F
S1130E602C270000F024000000000140008009400D
S1130E7000C00F407C0200107402001070030010C8
S1130E8000C000401C2700007825000010B5084B66
S1130E900446186882B00B46C06806490092224690
S1130EA000F068FC02B0BDE81040FFF7F5BA00BFDF
S1130EB030010010BC2700000FB400B5064A83B00F
S1130EC004AB126853F8041BD0681A46019300F06F
S1130ED093FE012000F090FB3001001038B50D4660
S1130EE0044600F0E9F8013509D02046002100F05D
S1130EF0FFF820460321BDE8384000F0F5B838BDBE
S1130F0038B50D46044600F0D7F801350FD02368F4
S1130F1001330DD02369626820461A60012100F074
S1130F20E7F820460221BDE8384000F0DDB838BDBE
S1130F30024803492422FFF7A9FFEBE73C24000001
S1130F405424000070B50D461646044600F0B4F86B
S1130F50013514D02368013312D066B9236962685D
S1130F601A602046012100F0C3F820460221BDE8A2
S1130F70704000F0B9B8E36862681A60F1E770BDC8
S1130F80034804492422FFF781FF002EE6D0F2E74C
S1130F903C24000054240000431C10B5044618D01F
S1130FA00B68581C04D10FE051F80C3F5A1C0BD0AD
S1130FB09C42F9D12046896800F0BCF82046022101
S1130FC0BDE8104000F0DEB80248BDE81040FFF76D
S1130FD073BF10BDF0270000884208B50AD0431C37
S1130FE007D0013106D00448FFF766FF4FF0FF3009
S1130FF008BD084608BD00BF042800000B685A1C41
S113100004D107E051F80C3F5A1C03D08342F9D1B4
S1131010486870471846704708B5431C0CD00B68E5
S11310205A1C04D109E051F80C3F5A1C05D09842CF
S1131030F9D14868411C00D008BD0348FFF73CFFC4
S11310404FF0FF30F8E700BF1828000038B5054618
S113105000F008F9044600F005F9001BA842FAD391
S113106038BD00BF08B5044900F046F900F094FA11
S1131070BDE80840FFF7EABF002474494FF47A73CF
S113108003FB00F0FFF7E2BF431C10B5044608D091
S11310902046002100F04EF804F01F040120A04077
S11310A010BD034803491522FFF7F0FEF0E700BF27
S11310B0382800004C28000038B504464B1C0D4667
S11310C021600FD00846FFF7DFFF25F01F0505F16B
S11310D0180105F11C0205F114036060A560E160CC
S11310E02261636138BD00BF006800F04BB800BFE7
S11310F038B50368044601330D4610D045B1012DBF
S113110005D1A368626819680A431A6038BD38BDFE
S1131110A36861681A6822EA01021A6038BD0348AC
S113112003492C22FFF7B2FEE8E700BF3C2400008D
S11311304C28000038B5431C04460D4617D004F172
S11311406040A0F51C2000F00F035B0003229A40CE
S11311509D4003099B0003F1804303F53033196874
S113116021EA02021A601A6815431D6038BD03485B
S113117003491522FFF78AFEE1E700BF3828000083
S1131180B428000038B5431C04460D462CD004F1A5
S11311906040A0F51C2000F01F04C5F3800202FA91
S11311A004F443099B0003F1804303F53033996E43
S11311B021EA04019966996E0C439C669AB900F081
S11311C00F035B0003229A4005FA03F30009800031
S11311D000F1804000F53030016C21EA0202026423
S11311E0026C1343036438BD024803492022FFF70D
S11311F04DFECCE738280000B4280000134A38B567
S113120013680BBB12490124D1F8C4501460114A6D
S1131210114845F40005C1F8C4501367036801F18F
S1131220437101F5F45103319B08A1FB03039B0CAB
S1131230013B022151600420D36008495460FEF749
S1131240D3FF074B10221A6038BD00BF5C030010A7
S113125000C00F4000400940CC000010B112000053
S113126000E100E008B5044B1B680BB9FFF7C6FFAB
S1131270024B986808BD00BF5C03001000400940A1
S1131280034B98615A6942F001025A61704700BFEA
S113129000400940024B5A6922F001025A6170472A
S11312A000400940014B01221A6070470040094088
S11312B070B5FFF7F7FF0E4C0E4E236873B11D682F
S11312C0FFF7D0FF281A00280CDC216832688B68ED
S11312D02360002AF2D048689047EEE7BDE87040EA
S11312E0FFF7D8BF2368BDE870401868FFF7C8BF90
S11312F060030010640300104FF0FF0C1CEAD0528E
S11313001EBF1CEAD15392EA0C0F93EA0C0F6FD064
S11313101A4480EA010C400218BF5FEA41211ED042
S11313204FF0006343EA501043EA5111A0FB01312E
S11313300CF00040B1F5000F3EBF490041EAD37103
S11313405B0040EA010062F17F02FD2A1DD8B3F17F
S1131350004F40EBC25008BF20F00100704790F0EE
S1131360000F0CF0004C08BF49024CEA502040EA40
S113137051207F3AC2BFD2F1FF0340EAC250704706
S113138040F400004FF00003013A5DDC12F1190F44
S1131390DCBF00F000407047C2F10002410021FAB6
S11313A002F1C2F1200200FA02FC5FEA310040F1CE
S11313B0000053EA4C0308BF20EADC70704792F047
S11313C0000F00F0004C02BF400010F4000F013A7F
S11313D0F9D040EA0C0093F0000F01F0004C02BF7A
S11313E0490011F4000F013BF9D041EA0C018FE7E9
S11313F00CEAD15392EA0C0F18BF93EA0C0F0AD0EF
S113140030F0004C18BF31F0004CD8D180EA010014
S113141000F00040704790F0000F17BF90F0004FAD
S1131420084691F0000F91F0004F14D092EA0C0F8F
S113143001D142020FD193EA0C0F03D14B0218BF22
S1131440084608D180EA010000F0004040F0FE4068
S113145040F40000704740F0FE4040F44000704704
S11314604FF0FF0C1CEAD0521EBF1CEAD15392EA83
S11314700C0F93EA0C0F69D0A2EB030280EA010C73
S113148049024FEA402037D04FF0805343EA11110C
S113149043EA10130CF000408B4238BF5B0042F16A
S11314A07D024FF4000C8B4224BF5B1A40EA0C000F
S11314B0B3EB510F24BFA3EB510340EA5C00B3EB41
S11314C0910F24BFA3EB910340EA9C00B3EBD10F2F
S11314D024BFA3EBD10340EADC001B0118BF5FEA81
S11314E01C1CE0D1FD2A3FF650AF8B4240EBC250AA
S11314F008BF20F0010070470CF0004C4CEA50206B
S11315007F32C2BFD2F1FF0340EAC250704740F4B9
S113151000004FF00003013A37E792F0000F00F0AB
S1131520004C02BF400010F4000F013AF9D040EA29
S11315300C0093F0000F01F0004C02BF490011F4BD
S1131540000F013BF9D041EA0C0195E70CEAD153B5
S113155092EA0C0F08D142027FF47DAF93EA0C0F9C
S11315607FF470AF084676E793EA0C0F04D14B0280
S11315703FF44CAF08466EE730F0004C18BF31F032
S1131580004CCAD130F000427FF45CAF31F000432C
S11315907FF43CAF5FE700BF4FEA4002B2F1FE4F79
S11315A00FD34FF09E03B3EB12620DD94FEA002321
S11315B043F0004310F0004F23FA02F018BF4042FA
S11315C070474FF00000704712F1610F01D14202E1
S11315D005D110F0004008BF6FF0004070474FF095
S11315E0000070470028B8BF40427047014B18689C
S11315F0704700BF3001001008B5074B044613B113
S11316000021AFF30080054B1868836A03B1984743
S1131610204600F005FF00BF000000007C29000008
S1131620014900F0B9B800BFA922000010B5044672
S1131630002303604360836081814366C281036148
S11316404361836119465C30082200F002F9054BBE
S113165024626362044BA362044BE362044B23637E
S113166010BD00BF551F0000771F0000AF1F000012
S1131670D31F000070B568234D1E5D430E4605F16F
S1131680740100F033F9044640B1002180E84200BF
S11316900C30A06005F1680200F0DBF8204670BD54
S11316A0836910B5044633BB8364C3640365124B7A
S11316B0124A1B688262984204BF0123836100F0CE
S11316C01FF86060204600F01BF8A060204600F080
S11316D017F80421E06000226068FFF7A7FFA06804
S11316E009210122FFF7A2FFE06812210222FFF77D
S11316F09DFF0123A36110BD7C2900002116000079
S1131700F8B51B4B07461E68B36913B93046FFF79B
S1131710C7FF4836B4687368013B04D4B4F90C506D
S113172075B16834F8E733682BB938460421FFF7FC
S1131730A1FF306008B13668ECE70C233B60F8BDCC
S11317404FF6FF73E3810123A38165662560A560DD
S1131750656025616561A56104F15C002946082284
S113176000F077F86563A563A564E5642046F8BDD9
S11317707C2900000EB403B5014603AB054853F8B9
S1131780042B0068019300F02FF902B05DF804EB1C
S113179003B07047300100102DE9F84380468946B4
S11317A000F14804002694B1A5686768013F0CD491
S11317B0AB89012B07D9B5F90E30013303D040466C
S11317C02946C84706436835F0E72468EBE7304606
S11317D0BDE8F8830E4B70B51E460E4C0025E41A86
S11317E0A410A54204D056F8253098470135F8E7EF
S11317F000F018FE084B094C1E46E41AA4100025FC
S1131800A54204D056F8253098470135F8E770BD55
S11318103401001034010010340100103C010010A8
S113182010B5C9B202449042034605D01C78013079
S11318308C42F8D1184610BD002010BD10B5431ECF
S11318400A44914204D011F8014B03F8014FF8E720
S113185010BD03460244934202D003F8011BFAE789
S11318607047000030B500293CD051F8042C0B1F00
S11318701D49002AB8BF9B180A680C4612B95A6061
S11318800B6030BD93420DD219685818904201BFC5
S11318905A5852181A60426823605A6030BD9942FF
S11318A003D80A4651680029F9D1146815199D42D4
S11318B00AD11B682344D0188842136012D10868E7
S11318C0034413604B680CE002D90C23036030BD61
S11318D01C681819884201BF086849680019186013
S11318E05960536030BD00BF6C03001070B5CC1C50
S11318F024F0030408340C2C38BF0C24002C0646B6
S113190003DA0C233360002070BD8C42F9D3204AE3
S1131910136810461946A1B10A68121B0ED40B2A8B
S113192003D90A608B188C501FE08B420BBF5A6896
S11319304A6802605A6018BF0B4616E00B464968B5
S1131940E9E7144D2B681BB9304600F0F3FA286020
S11319503046214600F0EEFA421C0346D1D0C51CA5
S113196025F0030585420AD11C6003F10B001A1D02
S113197020F00700821A0AD05142995070BD3046B7
S1131980E91A00F0D7FA0130BBD02B46ECE770BD62
S11319906C03001068030010936810B5013B002B22
S11319A0936009DA9469A34202DBCBB20A2B03D118
S11319B0BDE8104000F012BB1368581C1060197089
S11319C0C8B210BDF8B506460F461446D518AC4249
S11319D008D0304614F8011B3A46FFF7DDFF431CDC
S11319E0F5D100E00020F8BD2DE9F0439DB00D468F
S11319F090460393064618B183690BB9FFF750FE6E
S1131A00754B9D4201D1756808E0744B9D4201D12C
S1131A10B56803E0724B9D4208BFF568AB891C07AB
S1131A200AD52B6943B10023099320238DF829306B
S1131A3030238DF82A3041E03046294600F034FB4B
S1131A400028F0D04FF0FF30C2E0039A0134111D9A
S1131A5012680391002ABBBF524243F0020307926B
S1131A600792B8BF049323782E2B7BD0DFF88081B4
S1131A70217840460322FFF7D3FE38B1049AC8EB1D
S1131A8000004023834013430493013421785548D4
S1131A90062204F101088DF82810FFF7C1FE002882
S1131AA000F08580504B002B78D1039B073323F043
S1131AB0070308330393099B3B44099343461C469D
S1131AC013F8012B1AB9B4EB08090ED002E0252A49
S1131AD0F5D1F8E73046294642464B46FFF772FFF8
S1131AE0013070D0099B4B4409932378002B6AD0B2
S1131AF000234FF0FF3204930793059206938DF869
S1131B0053301A9304F101084446DFF8E890217831
S1131B1048460522FFF784FE08F10108049B30B112
S1131B20C9EB00000122824013430493ECE7D8067A
S1131B3044BF20228DF85320190744BF2B228DF86F
S1131B40532022782A2A80D0234607991C462278DB
S1131B500133303A092A03D80A2000FB0121F5E7B2
S1131B60079180E763782A2B0AD1039B02341A1D5C
S1131B701B680392002BB8BF4FF0FF33059375E742
S1131B80611C00220C4623780131303B092B03D819
S1131B900A2000FB0232F5E7059267E703AB0093E6
S1131BA0304604A92A46114BAFF3008007E003AB8B
S1131BB00093304604A92A460C4B00F0A1F8421CBD
S1131BC007467FF478AFAB895B063FF53BAF0998D6
S1131BD01DB0BDE8F08300BF1829000038290000BB
S1131BE0582900008A29000000000000C5190000DF
S1131BF0862900008029000030B505460C461346AE
S1131C00034A294610682246BDE83040FFF7ECBE7F
S1131C10300100102DE9F84391461F468A680B698C
S1131C2006469342B8BF1346C9F8003091F84320E2
S1131C300C46DDF8208012B10133C9F80030236866
S1131C40990642BFD9F800300233C9F8003025683C
S1131C5015F006051CD094F843302268003318BFF1
S1131C60012392061FD5E118302081F843005A1C45
S1131C7094F845102244023382F8431013E03046AE
S1131C80394604F119020123C047013007D0013558
S1131C90E368D9F800209B1A9D42F0DBDBE74FF0A4
S1131CA0FF30BDE8F8833046394604F14302C047AB
S1131CB00130F4D02268D9F80050E36802F006023B
S1131CC0042A08BF5D1B2269A3680CBF25EAE575D9
S1131CD000259342C4BF9B1AED184FF00009A94593
S1131CE00ADA3046394604F11A020123C0470130AA
S1131CF0D5D009F10109F2E70020BDE8F88300001E
S1131D002DE9FF410C461746227E98466E2A064668
S1131D100A9B01F1430100F0AA8012D8632A23D060
S1131D200AD8002A00F0B780582A40F0C68084F808
S1131D304520DFF8F8E151E0642A1ED0692A1CD05E
S1131D40BBE0732A00F0AB8009D86F2A2BD0702A2D
S1131D5040F0B380226842F02002226039E0752A04
S1131D6021D0782A35D0A8E01A6804F14205111D63
S1131D701960136884F84230A3E020681A6810F0F0
S1131D80800F03D0101D1860136805E04506F9D5CF
S1131D90101D1860B2F90030002B3BDA2D225B4293
S1131DA084F8432036E020681A6810F0800F03D0CE
S1131DB0101D1860136804E04006F9D5101D186062
S1131DC01388227EDFF864E16F2A0CBF08220A22FE
S1131DD01CE07822DFF858E184F84520226818686E
S1131DE012F0800F00F104051D6001D0036802E0C9
S1131DF05506FBD50388D00744BF42F02002226079
S1131E001BB9226822F0200222601022002084F8EC
S1131E10430002E0DFF814E10A226568002DA8BF40
S1131E202068A560A4BF20F00400206003B965B158
S1131E300D46B3FBF2F002FB10331EF8033005F835
S1131E40013D03460028F4D100E00D46082A0BD1D9
S1131E502368DA0708D5236962689A42DEBF302313
S1131E6005F8013C05F1FF35491B21612EE0256889
S1131E701A6815F0800F606903D0151D1D60136882
S1131E8008E015F0400F02F104051D60136801D04D
S1131E90188000E01860002323610D4616E01A68DC
S1131EA0111D19601568002128466268FFF7B8FC07
S1131EB008B1401B6060636804E004F1420584F8E3
S1131EC0422001232361002384F84330CDF80080AD
S1131ED03046214603AA3B46FFF79CFE013002D15F
S1131EE04FF0FF301FE0304639462A462369C04789
S1131EF00130F5D023689B0705D4E068039B984222
S1131F00B8BF18460FE00025E368039A9B1A9D4268
S1131F10F3DA3046394604F119020123C04701308F
S1131F20DED00135F0E704B0BDE8F081912900006E
S1131F30A229000038B5064C002305460846236054
S1131F40FEF73AFA431C02D1236803B12B6038BD73
S1131F507803001010B50C46B1F90E1000F02CFAFD
S1131F600028ABBF636DA3891B1823F48053ACBF57
S1131F706365A38110BD2DE9F0411D468B89074699
S1131F80DB050C46164605D5B1F90E1000220223D6
S1131F9000F0B4F9A389384623F48053A381B4F93B
S1131FA00E1032462B46BDE8F04100F06BB810B578
S1131FB00C46B1F90E1000F0A1F9431CA38915BF1A
S1131FC0606523F4805343F48053A38118BFA38135
S1131FD010BDB1F90E1000F0D3B8000070B50D4675
S1131FE01446064618B183690BB9FFF759FB224B17
S1131FF09C4201D1746808E0204B9C4201D1B46832
S113200003E01F4B9C4208BFF468A369A360A38943
S11320101A0709D523693BB123682069EDB2181A60
S1132020636998420FDB08E03046214600F03CF833
S11320300028F1D04FF0FF3070BD3046214600F04B
S113204033F90028F6D1A3680130013BA36023686B
S11320505A1C22601D706369984204D0A389DB076F
S113206007D50A2D05D13046214600F01DF9002878
S1132070E0D1284670BD00BF1829000038290000AF
S11320805829000038B5074C054600202060084652
S113209011461A46FEF70AF9431C02D1236803B11C
S11320A02B6038BD78030010314B70B51D680646AF
S11320B00C4625B1AB6913B92846FFF7F1FA2D4B4D
S11320C09C4201D16C6808E02B4B9C4201D1AC6866
S11320D003E02A4B9C4208BFEC68A3899AB211071B
S11320E01DD4D50602D40922326038E0500712D537
S11320F0616B41B104F14403994202D03046FFF7C9
S1132100B1FB00236363A38923F02403A381002389
S1132110636023692360A38943F00803A3812369CF
S11321204BB9A38903F42073B3F5007F03D0304681
S1132130214600F0F5F8A38913F0010205D000222E
S1132140A26062695242A26103E0990758BF6269C2
S1132150A26022694AB903F0800080B230B143F032
S11321604003A3814FF0FF3070BD002070BD00BF5D
S113217030010010182900003829000058290000F7
S113218038B5064C0023054608462360FEF778F868
S1132190431C02D1236803B12B6038BD78030010BF
S11321A08A892DE9F041054610070C4657D44B683F
S11321B0002B02DC0B6C002B18DDE66AB6B102F4CE
S11321C08052002392B22F682B600AB1626D10E036
S11321D0216A28460123B047411C024609D12B68D5
S11321E03BB11D2B01D0162B46D12F600020BDE83A
S11321F0F081A3895B0705D56368D21A636B0BB1C1
S1132200236CD21AE66A00232846216AB047461C8A
S1132210A38905D12A681AB11D2A01D0162A19D119
S1132220002262602269D904226004D5421C01D1D3
S11322302B6803B96065616B2F600029D6D004F167
S11322404403994202D02846FFF70CFB0020606348
S1132250BDE8F08143F04003A381BDE8F0810F693C
S1132260002FC3D093070E680CBF4B690023C7EB44
S113227006080F608B6012E0A3894FF0FF3043F033
S11322804003A381BDE8F0812846216A3A464346CB
S1132290A66AB0470028EFDD0744C0EB0808B8F190
S11322A0000FF1DCA2E7000038B50B6905460C46C7
S11322B0DBB118B183690BB9FFF7F2F90C4B9C42FF
S11322C001D16C6808E00B4B9C4201D1AC6803E07F
S11322D0094B9C4208BFEC68B4F90C302BB128467A
S11322E02146BDE83840FFF75BBF002038BD00BF82
S11322F018290000382900005829000038B5074C77
S1132300054600202060084611461A46FEF730F8BC
S1132310431C02D1236803B12B6038BD780300103D
S1132320F0B58B8991B09D0706460C4625D4B1F9CA
S11323300E10002908DAA389002513F0800F14BFBA
S113234040274FF480670DE001AA00F047F8002809
S1132350F1DB029D4FF4806705F47045A5F500514B
S11323604D424D4130463946FFF7C0FA60B9A38962
S11323709A051DD443F00203A38104F147032360AB
S113238023610123636113E00A4BB362A3892060D4
S113239043F08003A381206167614DB13046B4F9F5
S11323A00E1000F02DF818B1A38943F00103A381A6
S11323B011B0F0BD2116000038B5074C05460020C9
S11323C02060084611461A46FDF798FF431C02D1C7
S11323D0236803B12B6038BD7803001038B5074C6F
S11323E000230546084611462360FDF7D5FF431C2C
S11323F002D1236803B12B6038BD00BF78030010FD
S113240038B5064C0023054608462360FDF79CFFBB
S1132410431C02D1236803B12B6038BD780300103C
S1132420FEE700BFF8B500BFF8BC08BC9E46704785
S1132430F8B500BFF8BC08BC9E4670476F626A2DB1
S11324403E70696E20213D202850696E4E616D6595
S1132450294E4300433A5C436F64655C6769745F6B
S11324607265706F5C6769746875625C6D626564DF
S11324702D6F6666696369616C5C6275696C645C26
S11324806D6265645C5441524745545F4C5043311E
S11324903736385C5441524745545F4E58505C546B
S11324A041524745545F4C5043313736582F67707B
S11324B0696F5F6F626A6563742E680016C00920D5
S11324C0000001400100000047C009200000014055
S11324D002000000FFFFFFFFFFFFFFFF00000000FE
S11324E000000000010000000200000003000000E2
S11324F001C0092000C009400200000003C00920F7
S113250000C00040010000000BC009200080094009
S11325100100000010C0092000000140010000007B
S11325201AC0092000C009400300000041C009206E
S1132530000001400200000049C009200080094059
S1132540020000009DC0092000C0094003000000F3
S1132550FFFFFFFFFFFFFFFF0000000028696E740C
S1132560296F626A2D3E75617274203C3D2055418D
S113257052545F3300000000433A5C436F64655C6F
S11325806769745F7265706F5C6769746875625CB3
S11325906D6265642D6F6666696369616C5C6C6904
S11325A0627261726965735C6D6265645C746172A8
S11325B0676574735C68616C5C5441524745545F51
S11325C04E58505C5441524745545F4C5043313748
S11325D036585C73657269616C5F6170692E630063
S11325E02873746F705F62697473203D3D203129D4
S11325F0207C7C202873746F705F62697473203D43
S11326003D2032290000000028646174615F626922
S11326107473203E203429202626202864617461A6
S11326205F62697473203C2039290000287061724C
S1132630697479203D3D205061726974794E6F6EE2
S11326406529207C7C2028706172697479203D3D65
S1132650205061726974794F646429207C7C20283D
S1132660706172697479203D3D205061726974799A
S11326704576656E29207C7C2028706172697479A6
S1132680203D3D20506172697479466F72636564C0
S11326903129207C7C2028706172697479203D3D49
S11326A020506172697479466F72636564302900E1
S11326B0433A5C436F64655C6769745F7265706F0D
S11326C05C6769746875625C6D6265642D6F6666CB
S11326D0696369616C5C6C69627261726965735C7F
S11326E06D6265645C746172676574735C68616C67
S11326F05C5441524745545F4E58505C54415247D4
S113270045545F4C5043313736582F6770696F5FBB
S11327106F626A6563742E680000000028696E7435
S1132720297561727420213D204E430000C00920A8
S113273000C009400200000002C0092000C000409F
S1132740010000000AC009200080094001000000C7
S11327500FC00920000001400100000019C0092039
S113276000C009400300000040C0092000000140EF
S11327700200000048C00920008009400200000057
S11327809CC0092000C0094003000000FFFFFFFFB8
S1132790FFFFFFFF0000000011C0092000000140FE
S11327A00100000042C009200000014002000000B6
S11327B0FFFFFFFFFFFFFFFF000000006D62656485
S11327C0206173736572746174696F6E20666169E8
S11327D06C65643A2025732C2066696C653A202563
S11327E0732C206C696E65202564200A00000000AB
S11327F0636F756C64206E6F742070696E6F75748E
S11328000000000070696E6D6170206D69732D6D3C
S1132810617463680000000070696E6D6170206E01
S11328206F7420666F756E6420666F7220706572B7
S11328306970686572616C0070696E20213D2028A2
S113284050696E4E616D65294E430000433A5C4306
S11328506F64655C6769745F7265706F5C676974E7
S11328606875625C6D6265642D6F66666963696133
S11328706C5C6C69627261726965735C6D626564DB
S11328805C746172676574735C68616C5C5441521A
S11328904745545F4E58505C5441524745545F4C31
S11328A05043313736585C6770696F5F6170692EC9
S11328B063000000433A5C436F64655C6769745F5E
S11328C07265706F5C6769746875625C6D6265647B
S11328D02D6F6666696369616C5C6C6962726172B2
S11328E06965735C6D6265645C7461726765747359
S11328F05C68616C5C5441524745545F4E58505C6F
S11329005441524745545F4C5043313736585C70FC
S1132910696E6D61702E630000000000000000000D
S113292000000000000000000000000000000000A3
S11329300000000000000000000000000000000093
S11329400000000000000000000000000000000083
S11329500000000000000000000000000000000073
S11329600000000000000000000000000000000063
S1132970000000000000000043000000D000001030
S1132980232D302B2000686C4C0065666745464754
S113299000303132333435363738394142434445D7
S11329A04600303132333435363738396162636446
S10B29B0656600000000000050
S10B29B870D7FF7F010000004D
S11329C08003001000D8B80500000000182900009A
S11329D03829000058290000000000000000000011
S11329E00000000000000000782900000000000042
S11329F000000000000000000000000000000000D3
S1132A0000000000000000000000000000000000C2
S1132A1000000000000000000000000000000000B2
S1132A200000000000000000D0000010F1000000D1
S10B2A30C5010000CD00000007
S9030225D5
